:10000000759850758920758BFD758DFD53877FD24E
:100010008E11EC1165120100900227118B11E290F4
:100020000237118B11EC11EC11EC11E71201009069
:1000300001E9118B11E29001F9118B11EC11EC1116
:10004000EC11EC11EC11EC11E7900209118B11E2AB
:10005000900219119611EC11EC11EC11EC11EC114C
:10006000EC11E7012C743C1176740E1176740111B9
:10007000767406117622C297C295C29611DDD29788
:1000800011DDF5A011DDC29711DD227800E808939B
:1000900011C8B810F8227800E8089311C8B806F81B
:1000A000E5424430F54211C8E5434430F54311C8F8
:1000B000E5421201E1E5431201E1743B1201E1E87E
:1000C000089311C8B80EF822C297D295C29611DDD6
:1000D000D29711DDF5A011DDC29711DD227D37DD4C
:1000E000FE2274C0117622740211762279FA7AF90E
:1000F0000000000000000000000000DAF8D9EF2244
:1001000012018030D53D78CC12016478441201642C
:10011000D2AF7548017549FF754AFFD54AFDD549EB
:10012000F7D548F1C2AF12018030D51778CC120153
:100130006478BE120164120176F530120176F53151
:10014000120146D2AF22E53054F0F53AE531540FB2
:10015000453AC475F00A8485F04375F00A8485F049
:1001600042F54122E87D08C31340051201A980032E
:100170001201B2DDF2227D081201C013DDFAF8226D
:10018000D2B70000C2B77EFADEFE7E32DEFED2B704
:100190007E0FDEFE12019E7E3CDEFED2B722A2B7AB
:1001A0004004D2D58002C2D522C2B77E1EDEFED266
:1001B000B722C2B70000000000D2B77E1EDEFE22CA
:1001C000D2B70000C2B70000D2B7000000000000A4
:1001D00000A2B77E17DEFE227C147D1EDDFEDCFA57
:1001E00022F5993099FDC2992220202020204252E8
:1001F0004153494C202020202020464F5254414C4E
:10020000455A41202D2043452020202054454D5063
:10021000455241545552412020202020202020DFEB
:10022000432020202020202020494E494349414C92
:10023000495A414E444F20202020202020202E2E9D
:070240002E202020202020C9
:00000001FF
